{
  "_format": "hh-sol-artifact-1",
  "contractName": "EvidenceChain",
  "sourceName": "contracts/EvidenceChain.sol",
  "abi": [
    {
      "anonymous": false,
      "inputs": [
        {
          "indexed": true,
          "internalType": "string",
          "name": "evidenceId",
          "type": "string"
        },
        {
          "indexed": false,
          "internalType": "string",
          "name": "caseId",
          "type": "string"
        },
        {
          "indexed": false,
          "internalType": "string",
          "name": "hash",
          "type": "string"
        },
        {
          "indexed": false,
          "internalType": "uint256",
          "name": "timestamp",
          "type": "uint256"
        }
      ],
      "name": "EvidenceAdded",
      "type": "event"
    },
    {
      "inputs": [
        {
          "internalType": "string",
          "name": "_caseId",
          "type": "string"
        },
        {
          "internalType": "string",
          "name": "_evidenceId",
          "type": "string"
        },
        {
          "internalType": "string",
          "name": "_hash",
          "type": "string"
        }
      ],
      "name": "addEvidence",
      "outputs": [],
      "stateMutability": "nonpayable",
      "type": "function"
    },
    {
      "inputs": [
        {
          "internalType": "string",
          "name": "_evidenceId",
          "type": "string"
        }
      ],
      "name": "getEvidence",
      "outputs": [
        {
          "internalType": "string",
          "name": "caseId",
          "type": "string"
        },
        {
          "internalType": "string",
          "name": "evidenceId",
          "type": "string"
        },
        {
          "internalType": "string",
          "name": "hash",
          "type": "string"
        },
        {
          "internalType": "uint256",
          "name": "timestamp",
          "type": "uint256"
        }
      ],
      "stateMutability": "view",
      "type": "function"
    },
    {
      "inputs": [
        {
          "internalType": "string",
          "name": "_evidenceId",
          "type": "string"
        }
      ],
      "name": "getEvidenceHash",
      "outputs": [
        {
          "internalType": "string",
          "name": "",
          "type": "string"
        }
      ],
      "stateMutability": "view",
      "type": "function"
    }
  ],
  "bytecode": "0x608060405234801561001057600080fd5b50610bb5806100206000396000f3fe608060405234801561001057600080fd5b50600436106100415760003560e01c80633cf16fda14610046578063b16c6ee714610062578063f12f8db114610095575b600080fd5b610060600480360381019061005b9190610762565b6100c5565b005b61007c60048036038101906100779190610721565b610256565b60405161008c949392919061092b565b60405180910390f35b6100af60048036038101906100aa9190610721565b6104f5565b6040516100bc9190610909565b60405180910390f35b6000826040516100d591906108f2565b908152602001604051809103902060040160009054906101000a900460ff1615610134576040517f08c379a000000000000000000000000000000000000000000000000000000000815260040161012b906109ea565b60405180910390fd5b6040518060a001604052808481526020018381526020018281526020014281526020016001151581525060008360405161016e91906108f2565b90815260200160405180910390206000820151816000019080519060200190610198929190610616565b5060208201518160010190805190602001906101b5929190610616565b5060408201518160020190805190602001906101d2929190610616565b506060820151816003015560808201518160040160006101000a81548160ff0219169083151502179055509050508160405161020e91906108f2565b60405180910390207f2b9f219cca6f5bde51b2679bfe7ee2d1b09778983bf8b80fb8f1d04e180f1b8784834260405161024993929190610985565b60405180910390a2505050565b60608060606000808560405161026c91906108f2565b908152602001604051809103902060040160009054906101000a900460ff166102ca576040517f08c379a00000000000000000000000000000000000000000000000000000000081526004016102c1906109ca565b60405180910390fd5b600080866040516102db91906108f2565b90815260200160405180910390206040518060a001604052908160008201805461030490610ade565b80601f016020809104026020016040519081016040528092919081815260200182805461033090610ade565b801561037d5780601f106103525761010080835404028352916020019161037d565b820191906000526020600020905b81548152906001019060200180831161036057829003601f168201915b5050505050815260200160018201805461039690610ade565b80601f01602080910402602001604051908101604052809291908181526020018280546103c290610ade565b801561040f5780601f106103e45761010080835404028352916020019161040f565b820191906000526020600020905b8154815290600101906020018083116103f257829003601f168201915b5050505050815260200160028201805461042890610ade565b80601f016020809104026020016040519081016040528092919081815260200182805461045490610ade565b80156104a15780601f10610476576101008083540402835291602001916104a1565b820191906000526020600020905b81548152906001019060200180831161048457829003601f168201915b50505050508152602001600382015481526020016004820160009054906101000a900460ff161515151581525050905080600001518160200151826040015183606001519450945094509450509193509193565b606060008260405161050791906108f2565b908152602001604051809103902060040160009054906101000a900460ff16610565576040517f08c379a000000000000000000000000000000000000000000000000000000000815260040161055c906109ca565b60405180910390fd5b60008260405161057591906108f2565b9081526020016040518091039020600201805461059190610ade565b80601f01602080910402602001604051908101604052809291908181526020018280546105bd90610ade565b801561060a5780601f106105df5761010080835404028352916020019161060a565b820191906000526020600020905b8154815290600101906020018083116105ed57829003601f168201915b50505050509050919050565b82805461062290610ade565b90600052602060002090601f016020900481019282610644576000855561068b565b82601f1061065d57805160ff191683800117855561068b565b8280016001018555821561068b579182015b8281111561068a57825182559160200191906001019061066f565b5b509050610698919061069c565b5090565b5b808211156106b557600081600090555060010161069d565b5090565b60006106cc6106c784610a3b565b610a0a565b9050828152602081018484840111156106e457600080fd5b6106ef848285610a9c565b509392505050565b600082601f83011261070857600080fd5b81356107188482602086016106b9565b91505092915050565b60006020828403121561073357600080fd5b600082013567ffffffffffffffff81111561074d57600080fd5b610759848285016106f7565b91505092915050565b60008060006060848603121561077757600080fd5b600084013567ffffffffffffffff81111561079157600080fd5b61079d868287016106f7565b935050602084013567ffffffffffffffff8111156107ba57600080fd5b6107c6868287016106f7565b925050604084013567ffffffffffffffff8111156107e357600080fd5b6107ef868287016106f7565b9150509250925092565b600061080482610a6b565b61080e8185610a76565b935061081e818560208601610aab565b61082781610b6e565b840191505092915050565b600061083d82610a6b565b6108478185610a87565b9350610857818560208601610aab565b80840191505092915050565b6000610870601283610a76565b91507f45766964656e6365206e6f7420666f756e6400000000000000000000000000006000830152602082019050919050565b60006108b0601783610a76565b91507f45766964656e636520616c7265616479206578697374730000000000000000006000830152602082019050919050565b6108ec81610a92565b82525050565b60006108fe8284610832565b915081905092915050565b6000602082019050818103600083015261092381846107f9565b905092915050565b6000608082019050818103600083015261094581876107f9565b9050818103602083015261095981866107f9565b9050818103604083015261096d81856107f9565b905061097c60608301846108e3565b95945050505050565b6000606082019050818103600083015261099f81866107f9565b905081810360208301526109b381856107f9565b90506109c260408301846108e3565b949350505050565b600060208201905081810360008301526109e381610863565b9050919050565b60006020820190508181036000830152610a03816108a3565b9050919050565b6000604051905081810181811067ffffffffffffffff82111715610a3157610a30610b3f565b5b8060405250919050565b600067ffffffffffffffff821115610a5657610a55610b3f565b5b601f19601f8301169050602081019050919050565b600081519050919050565b600082825260208201905092915050565b600081905092915050565b6000819050919050565b82818337600083830152505050565b60005b83811015610ac9578082015181840152602081019050610aae565b83811115610ad8576000848401525b50505050565b60006002820490506001821680610af657607f821691505b60208210811415610b0a57610b09610b10565b5b50919050565b7f4e487b7100000000000000000000000000000000000000000000000000000000600052602260045260246000fd5b7f4e487b7100000000000000000000000000000000000000000000000000000000600052604160045260246000fd5b6000601f19601f830116905091905056fea26469706673582212207acf7f0e7b99240c001a55aaf14abbf94ae542452e9adf909f80521ce610ccd864736f6c63430008000033",
  "linkReferences": {},
  "deployedLinkReferences": {}
}